:020000040800F2
:100000006806002049010008FD120008951100084B
:10001000C5110008AD0600083F19000800000000E7
:10002000000000000000000000000000C9140008EB
:1000300037100008000000007113000801170008C5
:100040006301000863010008630100086301000800
:1000500063010008630100086301000863010008F0
:1000600063010008630100086301000863010008E0
:1000700063010008630100086301000863010008D0
:1000800063010008630100086301000863010008C0
:100090006301000863010008B1060008630100085D
:1000A00063010008630100086301000863010008A0
:1000B0006301000863010008630100086301000890
:1000C0006301000863010008630100086301000880
:1000D000630100087117000863010008630100084C
:1000E0006301000863010008630100086301000860
:1000F0006301000863010008630100086301000850
:10010000630100086301000863010008630100083F
:10011000630100086301000863010008630100082F
:10012000630100086301000863010008630100081F
:10013000DFF810D000F01AFA0048004789230008C1
:10014000AFF3008068060020064880470648004755
:10015000FEE7FEE7FEE7FEE7FEE7FEE7FEE7FEE777
:10016000FEE7FEE7111700083101000830B50B4625
:10017000014600202022012409E021FA02F59D42D7
:1001800005D303FA02F5491B04FA02F52844151EAB
:10019000A2F10102F1DC30BD2DE9F05F054600203F
:1001A00092469B4688460646814640241BE02846E8
:1001B00041464746224600F0FAF953465A46C01ACD
:1001C000914110D311461846224600F0E1F92D1A4C
:1001D00067EB01084F4622460120002100F0D8F9C4
:1001E00017EB00094E41201EA4F10104DFDC484654
:1001F00031462A464346BDE8F09F2DE9FE4F804632
:1002000081EA0300C00F0C46009021F0004123F06A
:100210000045B8EB0200A94105D240462146904670
:100220001C460B46024623F00040104347D0270DE2
:10023000C7F30A00C3F30A510290401A0190402804
:100240006BDAC3F3130040F4801B0098924620B190
:100250000023D2EB030A63EB0B0B01985946C0F164
:100260004002504600F094F906460D465046594665
:10027000019A00F0ACF910EB08006141002487EA14
:10028000115284EAE7731A4340D0009A62B3019A8C
:10029000012A4FEA075215DC001B61EB02014FF007
:1002A000004202EA0752CDE90042001C41F58011EC
:1002B00032462B4600F0ACF903B0BDE8F08F404663
:1002C0002146F9E7001B61EB0201001C41F5801398
:1002D00000185B412018A2F5001747EB030140EA24
:1002E000D570B6196D4111E06D084FEA360645EA42
:1002F000C0754FEA0752001B61EB0201001C41F57B
:10030000801149084FEA30000019514132462B460E
:1003100003B0BDE8F04F00F06CB900980122400036
:100320000023D0EB020263EBE073009821464FEA12
:10033000E074B8EB000061EB0401E9E783F00043EF
:100340005BE781F0004158E72DE9FE4F81EA0304A5
:1003500004F0004421F0004100944FF0000B23F022
:10036000004350EA01045ED052EA03045BD0C3F3B9
:100370000A54C1F30A552C44A4F2F3340194A0FBAF
:100380000254C1F3130141F48011C3F3130343F486
:10039000801301FB024400FB034E840A970A44EADF
:1003A000815447EA8357A4FB076802958D0A05FB31
:1003B00007854FEA932C04FB0C542705029D4FEA56
:1003C000065847EA1637B5EB08056EEB070C870EA3
:1003D000920E47EA811742EA8312A7FB0201B6EBAD
:1003E0000B0164EB00042B0D43EA0C335E1844EB65
:1003F0001C50DA465146E7FB0201C5F313044FEAED
:100400000B3343EA14534FEA0432019C43EA0603D8
:10041000A4F10C040294009CCDE900B400F0F8F8BB
:1004200003B0BDE8F08F00200146F9E72DE9F04D5B
:1004300081EA030404F0004B21F0004514464FF01C
:10044000000A23F0004150EA050220D054EA0102DC
:100450001DD0C5F30A570246C5F31303C1F31300B9
:10046000C1F30A5640F4801543F48013A7EB060845
:10047000101BD64608F2FD3873EB050002D308F1D5
:10048000010801E092185B41B8F1000F03DA002087
:100490000146BDE8F08D00204FF4801106468446E9
:1004A0000EE0171B73EB050705D3121B63EB050367
:1004B00006434CEA010C49084FEA300092185B41B0
:1004C00050EA0107EDD152EA030012D082EA04009B
:1004D00083EA0501084305D0101BAB4106D2012277
:1004E000002306E000224FF0004302E06FF001021B
:1004F00053101AEB06004CEB085110EB0A0041EBCD
:100500000B01BDE8F04D00F074B8C1F30A52C1F31D
:10051000130140F2FF3341F480119A4202DA0020C5
:100520000146704740F233439A42A2F2334202DC62
:10053000524200F03CB800F02BB8000030B5041E69
:1005400071F1000404DB4FF00044404264EB010110
:10055000141E73F1000405DB1C464FF000435242A9
:1005600063EB0403994208BF904230BD064C074D2F
:1005700006E0E06840F0010394E807009847103473
:10058000AC42F6D3FFF7D8FD3C2400085C240008F9
:10059000202A04DB203A00FA02F100207047914043
:1005A000C2F1200320FA03F3194390407047202A38
:1005B00004DB203A21FA02F00021704721FA02F30D
:1005C000D040C2F120029140084319467047202ACA
:1005D00006DBCB17203A41FA02F043EAE07306E06B
:1005E00041FA02F3D040C2F120029140084319467B
:1005F000704710B5141E73F1000408DA401C41F175
:10060000000192185B411A4301D120F0010010BD96
:100610002DE9F04D92469B4611B1B1FA81F202E00C
:10062000B0FA80F220329046FFF7B2FF04460F4640
:1006300040EA0A0041EA0B0153465A46084313D0E8
:10064000114653EA010019D0C8F140025046FFF7A5
:10065000AEFF05460E46504659464246FFF798FF04
:10066000084305D0012004E020463946BDE8F08D5E
:100670000020054346EAE0762C4337430A98630599
:10068000E40AA0EB08000022FD0A44EA47540A30BD
:1006900002D500200146E9E7010510196941DDE9AD
:1006A000084500196941BDE8F04DA2E700BFFEE72B
:1006B00010B54FF48071214800F0F0F901280AD1FB
:1006C0001F480068401C1E49086001200873010291
:1006D0001A4800F0EFF84FF40071184800F0DEF906
:1006E00001280AD116484068401C1549486002207C
:1006F00008730102114800F0DDF84FF480610F48E3
:1007000000F0CCF9012818D10D488068401C0C4934
:10071000886001200B4908700021084800F0B2F8F9
:100720000121064800F0AEF80221044800F0AAF8C2
:100730004FF48061014800F0BDF810BD0064004036
:1007400058000020180000202DE9FC4705460C4603
:10075000914600260027A01F0721B0FBF1F201FB04
:100760001200401CA11F0722B1FBF2F100EBC100F7
:1007700008304049086008460068012101EBD008B4
:10078000072C19D8002000900190E0B28DF80000ED
:10079000002005E015F8012B411C0DF80120401C3C
:1007A000A042F7D3344800990160019941600B38A9
:1007B00000F026FDBDE8FC87012030490870C4F335
:1007C0000320097840EA0110C0B28DF80000E0B2C1
:1007D0008DF80100002005E015F8012B811C0DF8B3
:1007E0000120401C0628F7DBB61D23480099016054
:1007F000019941600B3800F003FD022000F01CFC61
:1008000001201F49087031E0002000900190022073
:100810001A490870084601781948007861F31F10DA
:10082000C0B28DF80000002008E0A64205D215F8FD
:10083000012B411C0DF80120761C401C0728F4DB1D
:100840000D4800990160019941600B3800F0D8FC17
:100850000B480078401C0A490870084600780F28A9
:1008600001DD00200870022000F0E6FBA642CBD399
:1008700000BF9FE738000020470000202C00002028
:100880002D00002021B1012907D002290FD109E054
:10089000826842F0800282600AE0826842F400428C
:1008A000826005E0826842F40002826000E000BFDE
:1008B00000BF7047B1F5007F3AD00FDC202928D067
:1008C00006DC01291CD004291DD0082940D11DE0D7
:1008D000402921D0B1F5807F3AD126E0B1F5004F13
:1008E00031D006DCB1F5806F25D0B1F5006F2FD186
:1008F00024E0B1F5803F12D0B1F5003F28D111E0DE
:10090000154A826025E00822C26022E01022C260FF
:100910001FE0082202611CE01022026119E0082297
:10092000426016E01022426013E00422426010E0B0
:10093000042242600DE0042242600AE0002282614B
:100940000422426005E0002282610422426000E04D
:1009500000BF00BF704700000101010010B5044650
:100960000B48844209D10121480600F023FD0021F3
:100970004FF0007000F01EFD08E00121880600F035
:1009800019FD00214FF0806000F014FD10BD000043
:100990000064004010B50021837A012202FA03F1BD
:1009A0003D4A126842F001023B4B1A603A4A1C323F
:1009B00012688A43384B1C331A60027BCAB9364A24
:1009C0000C3212688A43344B0C331A604288C38855
:1009D00042EA0343304A4032847A42F83430028893
:1009E000838842EA03432C4A4032847A02EBC402F1
:1009F0005360027B012A19D1274A0C3212680A433C
:100A0000254B0C331A604288038842EA0343224A8A
:100A10004032847A42F83430C288838842EA034301
:100A20001D4A4032847A02EBC4025360C27A3AB95A
:100A3000194A121D12688A43174B1B1D1A6006E0E3
:100A4000154A121D12680A43134B1B1D1A600289B6
:100A500032B9114A143212688A430F4B14331A60A8
:100A60000289012A06D10C4A143212680A430A4B41
:100A700014331A60427B012A06D1074A1C321268DD
:100A80000A43054B1C331A60034A126822F0010224
:100A9000014B1A6010BD00000066004070B50446AE
:100AA0000D46002660692840002871D0B5F5807F8A
:100AB0005CD010DC082D35D006DC012D20D0022DB5
:100AC00024D0042D72D127E0102D31D0202D35D027
:100AD000402D6BD138E0B5F5004F60D009DCB5F59D
:100AE000007F49D0B5F5806F4CD0B5F5006F5DD172
:100AF0004FE0B5F5803F2DD0B5F5003F56D12FE042
:100B0000A0682D4900F08EFA064651E0E068032106
:100B100000F088FA06464BE0E068082100F082FA0F
:100B2000064645E0E068102100F07CFA06463FE00A
:100B30002069032100F076FA064639E02069082191
:100B400000F070FA064633E02069102100F06AFADE
:100B500006462DE06068082100F064FA064627E0AA
:100B60006068102100F05EFA064621E0A0690121CC
:100B700000F058FA06461BE0A069022100F052FA84
:100B8000064615E0A069042100F04CFA06460FE085
:100B90000FE0A069702100F045FA064608E06068A1
:100BA000042100F03FFA064602E0FFE7002600BFFE
:100BB00000E00026304670BD010101001AB1436912
:100BC0000B43436102E043698B434361704730B597
:100BD000024600200023146824F002041460146804
:100BE00044F00104146000E05B1C546804F001044C
:100BF0001CB94FF6FF74A342F6D1546804F0010407
:100C00000CB900206CE08C79012C04D1146844F0FC
:100C10008004146003E0146824F080041460CC792C
:100C2000012C04D1146844F04004146003E01468FB
:100C300024F0400414600C7A012C04D1146844F0B0
:100C40002004146003E0146824F0200414604C7A3B
:100C5000012C04D1146844F01004146003E01468FB
:100C600024F0100414608C7A012C04D1146844F030
:100C70000804146003E0146824F008041460CC7ABB
:100C8000012C04D1146844F00404146003E01468D7
:100C900024F0040414608C78A407CD7844EA056439
:100CA0000D7944EA05444D7944EA05540D886D1EDA
:100CB0002C43D461146824F001041460002300E084
:100CC0005B1C546804F001041CB14FF6FF74A3428E
:100CD000F6D1546804F001040CB1002000E00120BA
:100CE00030BD0246002019B9D36803F0030006E0C6
:100CF000012903D1136903F0030000E000207047CD
:100D000010B500F5D87303EB01131B6803F004035F
:100D10001372137A53B900F5D87303EB01131B68F0
:100D200040F2FF7404EA5353136009E000F5D873EE
:100D300003EB01131B686FF0604404EAD3035360B4
:100D400000F5D87303EB01131B6803F00203537221
:100D500000F5D87303EB01135B6803F00F03937284
:100D600000F5D87303EB01135B681B0AD37400F51D
:100D7000D87303EB01139B68D37200F5D87303EBB0
:100D800001139B681C0A147300F5D87303EB01135D
:100D90009B681C0C547300F5D87303EB01139B681C
:100DA0001B0E937300F5D87303EB0113DB68D37349
:100DB00000F5D87303EB0113DB681C0A147400F50B
:100DC000D87303EB0113DB681C0C547400F5D87363
:100DD00003EB0113DB681B0E937421B9C36843F066
:100DE0002003C36003E0036943F02003036110BDE7
:100DF00010B502460020936803F08063B3F1806F62
:100E000000D110E0936803F00063B3F1006F01D1EB
:100E1000012008E0936803F08053B3F1805F01D1B3
:100E2000022000E00420042874D002F5C07303EB14
:100E300000131B6803F0010402F5C07303EB0013F9
:100E40001C600B7A7BB94B7A0C8843EA445302F559
:100E5000C07404EB00142468234302F5C07404EB4F
:100E60000014236010E00B7A4C6843EAC4034C7A08
:100E7000234302F5C07404EB00142468234302F5F5
:100E8000C07404EB001423608B7A03F00F038B72A1
:100E900002F5C07303EB00135B6823F00F0402F547
:100EA000C07303EB00135C6002F5C07303EB001327
:100EB0005B688C7A234302F5C07404EB0014636012
:100EC0008B7B1C064B7B44EA03440B7B44EA0323E5
:100ED000CC7A234302F5C07404EB0014A3608B7C2E
:100EE0001C064B7C44EA03440B7C44EA0323CC7B82
:100EF000234302F5C07404EB0014E36002F5C073F1
:100F000003EB00131B6843F0010402F5C07303EB0D
:100F100000131C6010BD000010B50246002321B173
:100F2000012907D002290FD109E090681D4C00EA81
:100F300004030BE090681C4C00EA040306E0906890
:100F40001A4C00EA040301E0002300BF00BF184C64
:100F5000181BA34216D007DC83B16FF080601844E1
:100F600070B1022818D111E0B0F5007F10D0114CFB
:100F7000204448B1B0F5003F0ED10BE002230DE054
:100F800000230BE0002309E0002307E0012305E034
:100F9000012303E0012301E0002300BF00BFD8B21A
:100FA00010BD00000300000400030008000003104F
:100FB000000100080001FFF710B51648007830B1B5
:100FC000012805D002280BD0032820D116E01EE00E
:100FD000114800681149086002200E49087016E0A7
:100FE0000D4800680D490968401A40F6B83188423A
:100FF00003D903200749087009E000BF0020054914
:1010000008700748FFF7AAFC00F00CF900BF00BF0A
:1010100010BD000018000020000000201C0000206F
:10102000006400400246002002EA01030BB10120E7
:1010300000E000207047704700B5034603E04FF41E
:101040007A7000F005F8181EA3F10103F7D100BD76
:1010500000EBC001C9004FF0E02251610021916115
:101060000521116100BF4FF0E021096901F48031D1
:101070000029F8D004214FF0E022116170472DE9DA
:10108000F04102460025002600200023002400270E
:1010900091F803C00CF00F0591F803C00CF0100C90
:1010A000BCF1000F03D091F802C04CEA050591F89D
:1010B00000C0BCF1000F31D0146800202BE04FF0CD
:1010C000010C0CFA00F3B1F800C00CEA03069E42D2
:1010D00020D183004FF00F0C0CFA03F7BC4305FA44
:1010E00003FC4CEA040491F803C0BCF1280F06D1BC
:1010F0004FF0010C0CFA00FCC2F814C00AE091F8A1
:1011000003C0BCF1480F05D14FF0010C0CFA00FCF4
:10111000C2F810C0401C0828D1D31460B1F800C038
:10112000BCF1FF0F34DD546800202EE000F1080C04
:101130004FF0010808FA0CF3B1F800C00CEA0306FE
:101140009E4221D183004FF00F0C0CFA03F7BC43F1
:1011500005FA03FC4CEA040491F803C0BCF1280F23
:1011600005D100F1080C08FA0CF8C2F8148091F8C7
:1011700003C0BCF1480F07D100F1080C4FF0010883
:1011800008FA0CF8C2F81080401C0828CED354602E
:10119000BDE8F08100BFFEE708B50121402000F066
:1011A00019F91020ADF8000048208DF80300032045
:1011B0008DF8020069460248FFF761FF08BD000094
:1011C0000018014000BFFEE710B5044600210548A5
:1011D000FFF787FD012804DD224600210148FFF7C3
:1011E0008FFD10BD0064004010B500210348FFF7DB
:1011F00078FD08B1012010BD0020FCE7006400402C
:1012000070B5044621460648FFF7F2FD054600BFCB
:1012100029460348FFF780FE0128F9D170BD000080
:101220000064004000B589B00121480600F0B2F822
:101230000121042000F0CEF818208DF823004FF48F
:101240008050ADF8200003208DF8220008A929481D
:10125000FFF715FF48208DF823004FF40060ADF82C
:10126000200008A92348FFF70AFF00208DF8160088
:101270000620ADF8140007208DF818008DF819002D
:1012800001208DF8170000208DF81B0001208DF83B
:101290001C0000208DF81D0001208DF81E0000208C
:1012A0008DF81A008DF81F0005A91348FFF78FFC71
:1012B0000020ADF80C008DF80F0001208DF8100013
:1012C0000020ADF80400ADF80600ADF80800ADF858
:1012D0000A008DF80E0001208DF8110001A8FFF71B
:1012E00059FB01224FF4E0610348FFF767FC09B0A6
:1012F00000BD00000008014000640040704700008D
:1013000070B5002100230F22C47804B3154C246863
:1013100004F4E064C4F5E064210AC1F10403CA40A6
:10132000447804FA03F184781440214309010E4CF7
:101330000678A155047804F01F050124AC40057817
:101340006D11AD0005F1E025C5F8004109E0047814
:1013500004F01F050124AC40044D0678761145F8D1
:10136000264070BD0CED00E000E400E080E100E00C
:101370007047000029B1064A52690243044B5A6182
:1013800004E0034A52698243014B5A6170470000EE
:101390000010024029B1064AD2690243044BDA61C7
:1013A00004E0034AD2698243014BDA6170470000CE
:1013B0000010024029B1064A12690243044B1A6127
:1013C00004E0034A12698243014B1A61704700002E
:1013D0000010024029B1064A92690243044B9A6107
:1013E00004E0034A92698243014B9A61704700000E
:1013F0000010024030B500210022002400232D4DB2
:101400006D6805F00C0121B1042905D0082923D10C
:1014100005E0294D056022E0274D05601FE0254DC0
:101420006D6805F47012234D6D6805F48034022553
:1014300005EB92421CB9214D554305600BE01D4D53
:101440006D6805F400351DB11C4D5543056002E083
:10145000194D5543056002E0174D056000BF00BF00
:10146000144D6D6805F0F0010909154D6B5C0568B8
:10147000DD4045600F4D6D6805F4E061090A104DCF
:101480006B5C4568DD4085600A4D6D6805F4605110
:10149000C90A0B4D6B5C4568DD40C560054D6D6844
:1014A00005F44041890B074D6B5CC568B5FBF3F54E
:1014B000056130BD0010024000127A0000093D00B5
:1014C00004000020140000207047000010B50448FC
:1014D00000F02CFA034908700846007810BD00009F
:1014E000003801402000002000B587B001218803AA
:1014F000FFF770FF01210420FFF76CFF0121084670
:10150000FFF738FF25208DF8040001208DF8070033
:1015100002208DF805008DF8060001A8FFF7F0FE07
:1015200018208DF80B004FF40070ADF80800032070
:101530008DF80A0002A91E48FFF7A1FD04208DF8CE
:101540000B000002ADF8080003208DF80A0002A984
:101550001748FFF794FD4FF4E13003900020ADF8F9
:1015600018000C20ADF816000020ADF81400ADF8FE
:101570001200ADF8100003A90E4800F06BF901212C
:101580000C4800F029F90B48008800900948001D1C
:1015900000880090012240F22551064800F035F9FC
:1015A000012240F22441034800F02FF907B000BDAA
:1015B00000080140003801400FB400B59BB01DA8E1
:1015C000019002A8019A1C9900F0CCF9002001902A
:1015D00002A800F013F81BB05DF814FB10B5044628
:1015E0002146054800F0A7F900BF8021024800F01D
:1015F000FFF80028F9D010BD0038014070B504464E
:10160000002504E0605DFFF7E9FF681CC5B2605D7E
:101610000028F7D170BD10B500F002F810BD000031
:101620000CB50020019000903348006840F48030F1
:101630003149086000BF3048006800F40030009075
:101640000198401C0190009818B90198B0F5A06F5E
:10165000F1D12948006800F4003010B10120009059
:1016600001E0002000900098012843D12348006841
:1016700040F01000214908600846006820F003008F
:1016800008600846006840F0020008601A48406898
:10169000194948600846406848600846406840F478
:1016A000806048600846406820F47C104860084626
:1016B000406840F4E81048600846006840F08070D8
:1016C000086000BF0C48006800F000700028F9D0E6
:1016D0000948406820F00300074948600846406810
:1016E00040F00200486000BF0348406800F00C0072
:1016F0000828F9D10CBD0000001002400020024073
:1017000002480068401C0149086070470000002042
:1017100010B51348006840F0010011490860084600
:101720004068104908400E494860084600680E4964
:1017300008400B4908600846006820F480200860D3
:101740000846406820F4FE0048604FF41F0088609F
:10175000FFF761FF4FF000600449086010BD000012
:10176000001002400000FFF8FFFFF6FE08ED00E069
:1017700038B52021144800F03BF8012810D1134857
:101780000068B0F5007F09D2FFF7A0FE0F490C6892
:10179000611C0E4A11600E49085501E0FFF796FEE4
:1017A0001021094800F024F801280CD106480088CF
:1017B00000900548001D0088009001200549087030
:1017C00000200249086038BD003801402400002094
:1017D000680000202800002021B1828942F40052D4
:1017E000828104E082894DF6FF731A40828170473E
:1017F00002460020B1F5007F00D100BF13880B40E6
:101800000BB1012000E000207047F0B50346002432
:1018100000260025002040F66A17B94200D100BF1B
:101820001846C1F3421401F01F06012707FA06F516
:10183000012C01D10C3004E0022C01D1103000E069
:1018400014301AB107682F43076002E00768AF43FE
:101850000760F0BD2DE9F04786B005460E4600242E
:10186000A24600BFA1460027B08900B100BF2F46A5
:101870002C8A4CF6FF700440F08804432C82AC891B
:101880004EF6F3100440B08831890843718908434B
:101890000443AC81AC8A4FF6FF400440B089044356
:1018A000AC8201A8FFF7A6FD1F48874202D1DDF8F0
:1018B00010A001E0DDF80CA0A88900F4004040B1C0
:1018C0000AEBCA0000EB0A1031684900B0FBF1F8DE
:1018D00007E00AEBCA0000EB0A1031688900B0FB90
:1018E000F1F86420B8FBF0F004012009642101FB49
:1018F0001089A88900F4004040B1322000EBC900F3
:10190000B0FBF1F000F00700044308E0322000EBE8
:1019100009106421B0FBF1F000F00F0004432C81AA
:1019200006B0BDE8F0870000003801400146888815
:10193000C0F308007047C1F308028280704700BFFF
:10194000FEE700000FB4054B10B503A9044A029846
:1019500000F0ECF810BC5DF814FB000079230008DF
:101960005400002037B514460846064B6A46214607
:1019700000F0DCF804466946002000F05AFC2046DE
:101980003EBD00003322000802E008C8121F08C153
:10199000002AFAD170477047002001E001C1121FF0
:1019A000002AFBD1704700002DE9FF5F82B00021C3
:1019B000DDE90430020DDDF840B0034318D044F6F1
:1019C0001050A2F2FF3242431514119801281FD083
:1019D000A5EB0B00401C5FEA000A4FF000064E4FDB
:1019E000DFF83891B046504615D5CAF1000413E02F
:1019F000119801244AA3012801D16FEA0B01029832
:101A0000119AC0E90031C0E9024206B0BDE8F09F7A
:101A1000CBF10000DFE704460021404A491842EBC1
:101A20000450CDE9001012E0E00707D032463B46F3
:101A300040464946FEF788FC8046894632463B468A
:101A400010461946FEF780FC06460F466410002C2F
:101A5000EAD1DDE90401DDE90023BAF1000F06DA7D
:101A6000FEF772FC42464B46FEF76EFC05E0FEF7C1
:101A7000DDFC42464B46FEF7D9FC04460E460022EA
:101A8000284BFEF75BFD03D84FF0FF30014607E01F
:101A90000022254B20463146FEF7AFFBFEF735FD11
:101AA000102409E0002C0ADB0A220023FEF774FB55
:101AB000039B30321A55641E50EA0102F2D1641CB5
:101AC000039AC4F111031444119A012A03D001228C
:101AD00008430DD10AE0084304D000204FF0110B59
:101AE000119072E7A3EB0B056D1E0DE05B4504DD65
:101AF0004FF0000205F1010504E003DA4FF00002A7
:101B0000A5F10105002AECD002981199C0E9023133
:101B1000C0E9004579E70000000014400000F03FF4
:101B2000300000000000F0430000E03F2DE9FF4FCF
:101B300095B09A46884606460025EEE1252877D1DD
:101B400000242746F94A0121039400E0044316F8D3
:101B5000013F203B01FA03F01042F7D130782A28E8
:101B600011D06FF02F033078A0F13002092A16D877
:101B7000039A44F0020402EB820203EB4202104497
:101B8000761C0390EFE758F8042B0392002A03DA3F
:101B9000504244F40054039044F00204761C307820
:101BA0002E2816D116F8010F44F004042A280DD06F
:101BB0006FF02F023078A0F13003092B09D807EB22
:101BC000870302EB4303C718761CF3E758F8047B3E
:101BD000761C30786C280FD006DC4C2817D068288B
:101BE0000DD06A2814D104E0742810D07A280FD1BF
:101BF0000DE044F400140AE044F4801401E044F4DD
:101C000040147278824202D104F58014761C761C4E
:101C1000307866280BD013DC582877D009DC0028F0
:101C200075D04528F6D04628F4D047281AD193E13C
:101C300018E0632835D0642879D0652812D18BE16B
:101C4000702873D008DC6728F1D069286FD06E281F
:101C50000DD06F2806D1ACE073282CD0752874D035
:101C6000782853D05246179990476D1C54E1C4F31D
:101C70000250022809D003280DD0D8F800100428FB
:101C80000DD00D6008F1040846E1D8F80010EA17FD
:101C9000C1E90052F6E7D8F800100D80F2E70D70A8
:101CA000F0E718F8041B8DF8001000208DF80100F3
:101CB000EB46012003E058F804BB4FF0FF3061070A
:101CC0004FF0000102D40DE009F101018946B9424B
:101CD0000FDA8145F8DB1BF809100029F4D108E080
:101CE00009F1010189468142FADB1BF8091000293C
:101CF000F6D103985346A0EB090721463846179AB8
:101D000000F080FA284400EB090507E044E008E110
:101D10000DE01BF8010B524617999047B9F10109E4
:101D2000F7D2534621463846179AF2E039E00A21A5
:101D3000C4F302524FF0000B0091022A06D058F86B
:101D4000040BC117032A09D00AE023E008F10700B9
:101D500020F00702F2E80201904605E000B2C11748
:101D6000042A01D140B2C117002906DA0A4600212F
:101D7000404261EB02012D2202E0220504D52B2214
:101D80008DF80420012203E0E20701D02022F7E7CA
:101D9000914657E00A2100E010214FF0000B00911E
:101DA0000BE010214FF0000B44F0040408270091D1
:101DB00003E008204FF0000B0090C4F30252022A07
:101DC00005D058F8040B0021032A08D008E008F1D8
:101DD000070020F00702F2E80201904603E080B21B
:101DE000042A00D1C0B24FF0000922072AD5327868
:101DF000702A07D0DDF800C08CF0100C5CEA0B0CE8
:101E000005D00EE040228DF80420012208E050EABF
:101E1000010306D030238DF804308DF8052002220E
:101E20009146009B83F0080353EA0B030AD150EA62
:101E3000010201D1620705D530228DF804204FF050
:101E400001097F1E3278582A04D039A20C920CAABC
:101E500002920BE03BA2F9E75B46009AFEF79CF981
:101E60000C9B9B5C029A521E0292137050EA010274
:101E7000F2D1029804A9081A00F1200B600702D5DC
:101E800024F4803400E001275F4502DDA7EB0B005E
:101E900000E0002000EB0B01009003984944401A39
:101EA0000390E00306D453462146179A039800F0A6
:101EB000A9F90544002706E001A85246C05D17991C
:101EC00090476D1C7F1C4F45F6DBE0030CD5534655
:101ED0002146179A039800F095F9054404E0302054
:101EE0005246179990476D1C0099481E0090002992
:101EF000F5DC08E00298029952460078491C0291EC
:101F0000179990476D1CBBF10001ABF1010BF1DC9F
:101F10005BE100F065F90544761C307800287FF419
:101F20000DAE19B02846BDE8F08F00000928010069
:101F3000303132333435363738396162636465663F
:101F40000000000030313233343536373839414201
:101F50004344454600000000600700D4062708F10E
:101F6000070020F00700F0E80223804603F0004C51
:101F70005FEA0C0001D097A009E0200501D596A0EA
:101F800005E0E00701D095A001E0AFF24C0013900E
:101F9000307823F0004365280CD006DC452809D0B2
:101FA00046281DD047287FD13BE0662818D06728F7
:101FB0007AD136E00021112F01DB112000E0781CDE
:101FC000CDE9000104A90CA8FFF7EEFCDDE90D0145
:101FD0000C9A4FF0000B07F10109109200914EE0AE
:101FE0004FF000400097CDE9011004A90CA8FFF7BD
:101FF000DBFCDDE90D020C9B0F994FF0000B9146C5
:102000001093009211B9791C00EB0109B7EB09009C
:1020100003D4C0F1FF3B07F10109A9EB07000190D0
:1020200042E0012F00DA01270021112F01DD1120EC
:1020300000E03846CDE9000104A90CA8FFF7B4FC84
:10204000DDE90D010C9A00914FF0000BB94610929A
:1020500021070FD4009A4A4503DA914601E0A9F11D
:102060000109B9F1010F05DD109AA9F10101515CD7
:102070003029F4D0B84202DA10F1040F03DA01215A
:10208000CDE9011010E0002803DC8344A9EB000136
:1020900002E0411C494500DD8946A0EB0B00401CD5
:1020A00001904FF000400290200705D40198484568
:1020B00002DB4FF0FF30019000208DF84B000298BA
:1020C0000DF14B07B0F1004F25D002200C902B20D2
:1020D0000D90029800280CDA404202902D200D90BD
:1020E00007E00A210298FEF741F83031029007F824
:1020F000011D0C99481E0C900029F2DC0298002862
:10210000EFD1791E0D980870307800F0200040F073
:10211000450007F8020D11A8C01BC01D02901398BE
:10212000007800B1012000EB0901019801EBE0719A
:10213000029801440398401A401E0390E00306D41D
:1021400053462146179A039800F05CF8054413980B
:10215000007818B15246179990476D1CE00323D5BB
:1021600053462146179A039800F04CF805441BE0AB
:10217000BBF1000F07DB0098584504DD1098179954
:1021800010F80B0001E01799302052469047019853
:102190000BF1010B401E05F10105019004D12E2029
:1021A0005246179990476D1CB9F10001A9F1010938
:1021B000DEDC05E017F8010B5246179990476D1CBD
:1021C0000299481E02900029F4DC53462146179AD2
:1021D00003989EE62D0000002B0000002000000068
:1021E0002DE9F041044600251E461746880404D414
:1021F00005E039462020B0476D1C641EF9D52846FD
:10220000BDE8F0812DE9F041044600251E469046C8
:10221000C80301D5302700E02027880404D505E055
:1022200041463846B0476D1C641EF9D52846BDE8C6
:10223000F0810A68531C0B6010707047F0B585B0D0
:1022400037480078A52803D036A0FFF7B5F961E03C
:10225000002433484578C0783149897840EA01261E
:102260002F4F3F1D012D04D0022D25D0032D4FD11E
:102270002DE030A0FFF7A0F94FF4E06000900520BA
:102280008DF80A0000208DF80900EE208DF80B0073
:1022900000208DF8080000BF07E0214A011D535CB3
:1022A0000DF10B01421C8B54401C0428F5DB01246A
:1022B0006846FEF7A5FF2BE0314623A0FFF742FB5F
:1022C000224631463846FEF73FFA002420E005203A
:1022D0008DF80A0000208DF808008DF8090040F202
:1022E00003700090FF208DF80B00002007E00C4ADF
:1022F000011D535C0DF10B01421C8B54401C042842
:10230000F5DB6846FEF77CFF16A0FFF71BFB00BF5E
:1023100000BF00BF00201749087005B0F0BD0000E5
:1023200068000020CAFDBEDDCAD7D6A1B4EDCEF349
:102330000D0A0000CAFDBEDDCAD7D6A1BFAACABC1D
:10234000B7A2CBCD0D0A0000434D443A204461743E
:1023500061205472616E736D6974204C656E3A250C
:10236000640D0A00434D443A20456E64204F5441A9
:102370000D0A00002800002070B504460D46E0B2AA
:10238000FFF72CF9204670BD8AB000BF00BFFFF7F1
:10239000ABF8FEF747FFFEF7FFFE22E0114800789A
:1023A000012801D1FFF74AFFFEF706FEFEF71CFFEA
:1023B000012802D105A8FEF707FF9DF81D009DF832
:1023C0001C1005AA927B05AB5B7BCDE90032CDE901
:1023D000021005A8037B9DF81F2003480599FFF70D
:1023E000EBF8DBE728000020EC23000869643A25BD
:1023F000780D0A646174615B305D3A25782C646104
:1024000074655B315D3A25782C646174615B325D83
:102410003A25782C646174615B335D3A25780D0A46
:1024200049445F747970653A25780D0A4461746196
:102430005F547970653A25780D0A00005C24000825
:10244000000000205800000088190008B42400088B
:102450005800002010060000981900080000000035
:10246000000000000102030401020304060708093A
:102470000204060800000000000000000000000048
:10248000000000000000000000000000000000004C
:102490000000000000000000010700000000000034
:1024A0000000080000000000000000000000000024
:0424B0000000000028
:0400000508000149A5
:00000001FF
