:020000040800F2
:10500000F0570020E1510008E56400086F630008D4
:10501000CD630008655B0008416C000800000000DB
:1050200000000000000000000000000049510008DE
:1050300013620008000000008D510008516A00084A
:10504000FB510008FB510008FB510008FB51000810
:10505000FB510008FB510008FB510008FB51000800
:10506000FB510008FB510008FB510008FB510008F0
:10507000FB510008FB510008FB510008FB510008E0
:10508000FB510008FB510008FB510008FB510008D0
:10509000F96B0008FB510008FB510008FB510008A8
:1050A000FB510008FB510008FB510008FB510008B0
:1050B000FB510008FB510008FB510008FB510008A0
:1050C000FB510008FB510008FB510008FB51000890
:1050D000FB510008FB510008FB510008FB51000880
:1050E000FB510008FB510008FB510008FB51000870
:1050F000FB510008FB510008FB510008FB51000860
:10510000FB510008FB510008FB510008FB5100084F
:10511000FB510008FB510008FB510008FB5100083F
:10512000FB510008FB510008FB510008FB5100082F
:10513000DFF810D000F0A0FB00480047F17600082F
:10514000AFF30080F0570020224B19680868B0E8E0
:10515000F00F80F30988BFF36F8F4FF0000080F3EA
:1051600011884EF00D0E70470000000006480068E0
:10517000006880F3088862B661B6BFF34F8FBFF353
:105180006F8F00DF00BF00BF08ED00E0EFF3098084
:10519000BFF36F8F0F4B1A6820E9F00F106008B54E
:1051A0004FF0500080F31188BFF34F8FBFF36F8F24
:1051B00003F0ECFB4FF0000080F31188BDE80840DD
:1051C00019680868B0E8F00F80F30988BFF36F8FA3
:1051D000704700BF14000020EFF305807047000007
:1051E0000648804706480047FEE7FEE7FEE7FEE781
:1051F000FEE7FEE7FEE7FEE7FEE7FEE7856A00085A
:105200003151000840EA01039B0703D009E008C9B7
:10521000121F08C0042AFAD203E011F8013B00F87B
:10522000013B521EF9D27047D2B201E000F8012BC7
:10523000491EFBD270470022F6E710B513460A4616
:1052400004461946FFF7F0FF204610BDF0B480EA8F
:105250000102D40F4200B2EB410F02D202460846CF
:1052600011464A0042D0C30DDDB2C1F3C752AD1A98
:10527000202D35DAC1F3160141F4000204B1524287
:10528000C5F1200602FA06F12A411044B3EBD05FC3
:1052900023D0C4B1012DA0EBC35009DCF0BC4FF00A
:1052A000004202EAC352DBB200F5000000F0FEB893
:1052B000400000F1807000EBC350A0F1807040EA24
:1052C000D170490009E0490841EAC071A0EBC35020
:1052D00000F50000400800EBC350F0BC00F0DDB862
:1052E0006142012202EB4101001BF6E7F0BC70476E
:1052F00081F00041AAE780F00040A7E780EA0102C0
:1053000010B502F00043400022D04A001FD0010E29
:1053100001EB1261C0F35600C2F3560240F40000E4
:1053200042F40002A0FB022000047F39140400D0E4
:10533000401C50EA124001D44000491EC2B20C0683
:1053400004EBD010401C4008802A02D003E000206B
:1053500010BD20F00100002900DA0020184310BD24
:1053600030B480EA010202F0004530F0004221F042
:10537000004013D090B1C30DD40DC2F31601C0F399
:105380001600E41A41F4000140F400027D34914219
:1053900001D3641C00E04900002C02DA30BC00207C
:1053A00070474FF400000023914201D3891A034350
:1053B00040084FEA4101F7D151B1914202D14FF07B
:1053C000004105E002D24FF0010101E06FF0010160
:1053D00003EBC450284430BC00F05FB89623002291
:1053E000114600F063B800F0004230F000400AD0EF
:1053F000C10D01F56071C0F3160042EA0151C20807
:1054000040071143704700200146704730B50B46F6
:10541000014600202022012409E021FA02F59D42E4
:1054200005D303FA02F5491B04FA02F52844151EB8
:10543000A2F10102F1DC30BD2DE9F05F054600204C
:1054400092469B4688460646814640241BE02846F5
:1054500041464746224600F030FA53465A46C01AA3
:10546000914110D311461846224600F017FA2D1A22
:1054700067EB01084F4622460120002100F00EFA9A
:1054800017EB00094E41201EA4F10104DFDC484661
:1054900031462A464346BDE8F09F0029A8BF704721
:1054A000401C490008BF20F00100704710B4B0FA5A
:1054B00080FC00FA0CF050EA010404BF10BC7047F5
:1054C00049B1CCF1200421FA04F411FA0CF118BF0F
:1054D000012121430843A3EB0C01CB1D4FEA0061DE
:1054E0004FEA102042BF002010BC704700EBC350B1
:1054F00010440029A4BF10BC7047401C490008BFDD
:1055000020F0010010BC70472DE9FE4F804681EA73
:105510000300C00F0C46009021F0004123F000452D
:10552000B8EB0200A94105D24046214690461C46F0
:105530000B46024623F00040104347D0270DC7F327
:105540000A00C3F30A510290401A019040286BDA16
:10555000C3F3130040F4801B0098924620B100234F
:10556000D2EB030A63EB0B0B01985946C0F14002E2
:10557000504600F093F906460D4650465946019AAA
:1055800000F0ABF910EB08006141002487EA1152EA
:1055900084EAE7731A4340D0009A62B3019A012A61
:1055A0004FEA075215DC001B61EB02014FF000428D
:1055B00002EA0752CDE90042001C41F58011324653
:1055C0002B4600F0ABF903B0BDE8F08F4046214612
:1055D000F9E7001B61EB0201001C41F58013001884
:1055E0005B412018A2F5001747EB030140EAD57094
:1055F000B6196D4111E06D084FEA360645EAC075EF
:105600004FEA0752001B61EB0201001C41F58011BB
:1056100049084FEA30000019514132462B4603B089
:10562000BDE8F04F00F06BB9009801224000002364
:10563000D0EB020263EBE073009821464FEAE0747E
:10564000B8EB000061EB0401E9E783F000435BE79E
:1056500081F0004158E72DE9FE4F81EA030404F090
:10566000004421F0004100944FF0000B23F0004370
:1056700050EA01045ED052EA03045BD0C3F30A543B
:10568000C1F30A552C44A4F2F3340194A0FB025454
:10569000C1F3130141F48011C3F3130343F48013E6
:1056A00001FB024400FB034E840A970A44EA81543A
:1056B00047EA8357A4FB076802958D0A05FB078517
:1056C0004FEA932C04FB0C542705029D4FEA065821
:1056D00047EA1637B5EB08056EEB070C870E920EFE
:1056E00047EA811742EA8312A7FB0201B6EB0B01DE
:1056F00064EB00042B0D43EA0C335E1844EB1C50A2
:10570000DA465146E7FB0201C5F313044FEA0B33B7
:1057100043EA14534FEA0432019C43EA0603A4F11E
:105720000C040294009CCDE900B400F0F7F803B03B
:10573000BDE8F08F00200146F9E72DE9F04D81EA40
:10574000030404F0004B21F0004514464FF0000A1A
:1057500023F0004150EA050220D054EA01021DD096
:10576000C5F30A570246C5F31303C1F31300C1F38F
:105770000A5640F4801543F48013A7EB0608101B6B
:10578000D64608F2FD3873EB050002D308F1010894
:1057900001E092185B41B8F1000F03DA00200146E6
:1057A000BDE8F08D00204FF48011064684460EE0DF
:1057B000171B73EB050705D3121B63EB05030643A9
:1057C0004CEA010C49084FEA300092185B4150EA5C
:1057D0000107EDD152EA030012D082EA040083EA05
:1057E0000501084305D0101BAB4106D2012200235E
:1057F00006E000224FF0004302E06FF00102531078
:105800001AEB06004CEB085110EB0A0041EB0B01C0
:10581000BDE8F04D00F073B8C1F30A52C1F31301B3
:1058200040F2FF3341F480119A4202DA002001462F
:10583000704740F233439A42A2F2334202DC5242B2
:1058400000F03BB800F02AB830B5041E71F1000436
:1058500004DB4FF00044404264EB0101141E73F17D
:10586000000405DB1C464FF00043524263EB040387
:10587000994208BF904230BD064C074D06E0E068F3
:1058800040F0010394E8070098471034AC42F6D387
:10589000FFF752FCB0950008D0950008202A04DBE1
:1058A000203A00FA02F1002070479140C2F1200333
:1058B00020FA03F3194390407047202A04DB203A72
:1058C00021FA02F00021704721FA02F3D040C2F120
:1058D00020029140084319467047202A06DBCB1767
:1058E000203A41FA02F043EAE07306E041FA02F39B
:1058F000D040C2F12002914008431946704710B5CC
:10590000141E73F1000408DA401C41F100019218E2
:105910005B411A4301D120F0010010BD2DE9F04D8B
:1059200092469B4611B1B1FA81F202E0B0FA80F2E0
:1059300020329046FFF7B2FF04460F4640EA0A00C5
:1059400041EA0B0153465A46084313D0114653EA25
:10595000010019D0C8F140025046FFF7AEFF0546DE
:105960000E46504659464246FFF798FF084305D079
:10597000012004E020463946BDE8F08D00200543B3
:1059800046EAE0762C4337430A986305E40AA0EB25
:1059900008000022FD0A44EA47540A3002D50020DC
:1059A0000146E9E7010510196941DDE908450019DB
:1059B0006941BDE8F04DA2E721B1826842F00102E1
:1059C000826003E0826822F001028260704721B1A8
:1059D000826842F48072826003E0826822F48072FE
:1059E00082607047014600208A6802F004020AB112
:1059F000012000E000207047014600208A6802F084
:105A000008020AB1012000E00020704730B50246CC
:105A10000020002350680F4C20400D790C6844EAA8
:105A200005242043506090680B4C2040D1E902547B
:105A30002C434D7944EA450420439060D06A20F419
:105A400070000C7C641EE4B2234340EA0350D06231
:105A500030BD0000FFFEF0FFFDF7F1FFF0B504469A
:105A60000D4600200021092D11DDE068A5F10A0690
:105A700006EB4607072606FA07F18843A5F10A0652
:105A800006EB460603FA06F10843E0600CE02069E5
:105A900005EB4507072606FA07F1884305EB45069F
:105AA00003FA06F108432061072A0FDA606B561EDD
:105AB00006EB86071F2606FA07F18843561E06EBFB
:105AC000860605FA06F10843606322E00D2A0FDA24
:105AD000206BD61F06EB86071F2606FA07F18843C0
:105AE000D61F06EB860605FA06F10843206310E090
:105AF000E06AA2F10D0606EB86071F2606FA07F1FB
:105B00008843A2F10D0606EB860605FA06F1084366
:105B1000E062F0BD816841F008018160704721B109
:105B2000826842F4A002826003E0826822F4A0024C
:105B300082607047816841F0040181607047000015
:105B400030B10749096841F40001054A116005E0D8
:105B50000349096821F40001014A116070470000FF
:105B60000824014000BFFEE710B50021837A01221E
:105B700002FA03F13D4A126842F001023B4B1A60FF
:105B80003A4A1C3212688A43384B1C331A60027B33
:105B9000CAB9364A0C3212688A43344B0C331A6045
:105BA0004288C38842EA0343304A4032847A42F84A
:105BB00034300288838842EA03432C4A4032847A94
:105BC00002EBC4025360027B012A19D1274A0C322E
:105BD00012680A43254B0C331A604288038842EA54
:105BE0000343224A4032847A42F83430C2888388A0
:105BF00042EA03431D4A4032847A02EBC4025360F6
:105C0000C27A3AB9194A121D12688A43174B1B1DF2
:105C10001A6006E0154A121D12680A43134B1B1D39
:105C20001A60028932B9114A143212688A430F4B42
:105C300014331A600289012A06D10C4A1432126800
:105C40000A430A4B14331A60427B012A06D1074AE1
:105C50001C3212680A43054B1C331A60034A12684F
:105C600022F00102014B1A6010BD000000660040E6
:105C700070B504460D46002660692840002871D0A2
:105C8000B5F5807F5CD010DC082D35D006DC012D09
:105C900020D0022D24D0042D72D127E0102D31D038
:105CA000202D35D0402D6BD138E0B5F5004F60D0B8
:105CB00009DCB5F5007F49D0B5F5806F4CD0B5F55E
:105CC000006F5DD14FE0B5F5803F2DD0B5F5003FB9
:105CD00056D12FE0A0682D4900F068FA064651E041
:105CE000E068032100F062FA06464BE0E068082114
:105CF00000F05CFA064645E0E068102100F056FA34
:105D000006463FE02069032100F050FA064639E0DC
:105D10002069082100F04AFA064633E02069102184
:105D200000F044FA06462DE06068082100F03EFAD3
:105D3000064627E06068102100F038FA064621E0A8
:105D4000A069012100F032FA06461BE0A069022199
:105D500000F02CFA064615E0A069042100F026FAAE
:105D600006460FE00FE0A069702100F01FFA06461A
:105D700008E06068042100F019FA064602E0FFE737
:105D8000002600BF00E00026304670BD0101010082
:105D90001AB143690B43436102E043698B4343619A
:105DA000704730B5024600200023146824F0020436
:105DB0001460146844F00104146000E05B1C546833
:105DC00004F001041CB94FF6FF74A342F6D15468E5
:105DD00004F001040CB900206CE08C79012C04D192
:105DE000146844F08004146003E0146824F0800414
:105DF0001460CC79012C04D1146844F04004146080
:105E000003E0146824F0400414600C7A012C04D1DF
:105E1000146844F02004146003E0146824F02004A3
:105E200014604C7A012C04D1146844F010041460FE
:105E300003E0146824F0100414608C7A012C04D15F
:105E4000146844F00804146003E0146824F00804A3
:105E50001460CC7A012C04D1146844F0040414605A
:105E600003E0146824F0040414608C78A407CD784F
:105E700044EA05640D7944EA05444D7944EA055441
:105E80000D886D1E2C43D461146824F00104146045
:105E9000002300E05B1C546804F001041CB14FF6C1
:105EA000FF74A342F6D1546804F001040CB1002041
:105EB00000E0012030BD0246002019B9D36803F08C
:105EC000030006E0012903D1136903F0030000E099
:105ED0000020704710B500F5D87303EB01131B6861
:105EE00003F004031372137A53B900F5D87303EB6C
:105EF00001131B6840F2FF7404EA5353136009E076
:105F000000F5D87303EB01131B686FF0604404EADB
:105F1000D303536000F5D87303EB01131B6803F040
:105F20000203537200F5D87303EB01135B6803F0AF
:105F30000F03937200F5D87303EB01135B681B0A20
:105F4000D37400F5D87303EB01139B68D37200F58B
:105F5000D87303EB01139B681C0A147300F5D87304
:105F600003EB01139B681C0C547300F5D87303EB0F
:105F700001139B681B0E937300F5D87303EB011399
:105F8000DB68D37300F5D87303EB0113DB681C0ADD
:105F9000147400F5D87303EB0113DB681C0C547404
:105FA00000F5D87303EB0113DB681B0E937421B962
:105FB000C36843F02003C36003E0036943F0200398
:105FC000036110BDF8B500250027002000906E4841
:105FD000C07AEE281DD16C480068B0F5E06F18D18A
:105FE00001206A4908706848007B01066648407BCA
:105FF00041EA00416448807B41EA00206249C97B54
:1060000008436249886000236A466148006802F0DC
:106010001BFE5D48C07AFF281BD15B48006840F238
:106020000371884215D102205849087000240EE0FF
:1060300055480B30611C415C544808300155002321
:106040006A4652495248006802F0FEFD641C042C66
:10605000EEDB4D48C07A00090546012D30D1002005
:106060004C4908604848007B4749C97A01F00F0154
:1060700040EA0120454948600846406846490860B2
:10608000464847490860002010E03F490B31821C18
:10609000895C424A115442490968491C404A1160CE
:1060A0003C490968491C3B4A1160401C0628ECDB4E
:1060B00002203C49087001203B4908700020F8BDCF
:1060C000022D5FD10320314908703648007802283C
:1060D00001D00120F3E700262B48C07A00F00F061C
:1060E00031480078864247D12F480078401C2E491D
:1060F00008700878C11700EB11710911A0EB0111AC
:10610000294A11700020044633E0224800682249E1
:106110000968884210D21C480B30611C405C204941
:10612000096808701E480068401C1D49086019482D
:106130000068401C1749086016480068164909683D
:10614000884214D34FF40072144910480830FFF706
:1061500059F800236A460D490D48006802F074FDA5
:1061600001201049087000200A490860A7E7601C58
:106170000446072CC9DB04E001200A49087002200C
:106180009DE700BF00BF9AE7CC4B0020E8500020FD
:1061900088000020A8000020A4000020E84E002075
:1061A0009C000020A0000020980000200246002053
:1061B00002EA01030BB1012000E00020704721B189
:1061C000026842F00102026004E002684FF6FE73CA
:1061D0001A400260704710B50022026847F6F0735B
:1061E0009A430C6A8B6823430C6923434C6923430D
:1061F0008C692343CC6923434C6A23438C6A234331
:106200001A430260CB6843600B6883604B68C360CD
:1062100010BD704716E04FF0FF320B490B48006885
:1062200002F05EFD08480078042801D102F026F84B
:1062300005480078052805D10349D1F80402491C16
:1062400002F068F8E7E70000C44900208C00002055
:106250002DE9F041024600250026002000230024FD
:10626000002791F803C00CF00F0591F803C00CF063
:10627000100CBCF1000F03D091F802C04CEA0505E8
:1062800091F800C0BCF1000F31D0146800202BE061
:106290004FF0010C0CFA00F3B1F800C00CEA030651
:1062A0009E4220D183004FF00F0C0CFA03F7BC4341
:1062B00005FA03FC4CEA040491F803C0BCF1280F72
:1062C00006D14FF0010C0CFA00FCC2F814C00AE031
:1062D00091F803C0BCF1480F05D14FF0010C0CFA46
:1062E00000FCC2F810C0401C0828D1D31460B1F8DB
:1062F00000C0BCF1FF0F34DD546800202EE000F137
:10630000080C4FF0010808FA0CF3B1F800C00CEAD1
:1063100003069E4221D183004FF00F0C0CFA03F7C5
:10632000BC4305FA03FC4CEA040491F803C0BCF139
:10633000280F05D100F1080C08FA0CF8C2F81480F7
:1063400091F803C0BCF1480F07D100F1080C4FF0E1
:10635000010808FA0CF8C2F81080401C0828CED3B7
:106360005460BDE8F081416170470161704700BF32
:10637000FEE7000008B50121402000F0F3F91020ED
:10638000ADF8000048208DF8030003208DF80200CE
:1063900069460248FFF75CFF08BD00000018014095
:1063A00008B50121082000F0DDF910208DF8030068
:1063B0002020ADF8000002208DF802006946024856
:1063C000FFF746FF08BD0000000C014000BFFEE7DC
:1063D00010B5044600210548FFF76DFD20B12246A7
:1063E00000210248FFF776FD10BD00000064004068
:1063F00000B589B00121480600F0A4F9012104206C
:1064000000F0B0F918208DF823004FF48050ADF85B
:10641000200003208DF8220008A93048FFF718FF5C
:1064200048208DF823004FF40060ADF8200008A943
:106430002A48FFF70DFF00208DF816000620ADF862
:10644000140007208DF818008DF8190001208DF830
:10645000170000208DF81B0001208DF81C00002083
:106460008DF81D0001208DF81E0000208DF81A0007
:106470008DF81F0005A91A48FFF793FC4FF44070F0
:1064800000F06AF814208DF8000001208DF8030058
:106490008DF80100684600F027F80122022110481B
:1064A000FFF776FC0020ADF80C008DF80F000120FE
:1064B0008DF810000020ADF80400ADF80600ADF82E
:1064C0000800ADF80A008DF80E0001208DF81100CB
:1064D00001A8FFF749FB09B000BD0000000801401A
:1064E000006400407047000070B5002100230F22B7
:1064F000C47804B3154C246804F4E064C4F5E06483
:10650000210AC1F10403CA40447804FA03F18478F3
:106510001440214309010E4C0678A155047804F07B
:106520001F050124AC4005786D11AD0005F1E02593
:10653000C5F8004109E0047804F01F050124AC40CF
:10654000044D0678761145F8264070BD0CED00E04C
:1065500000E400E080E100E002490143024A1160EA
:10656000704700000000FA050CED00E070B503462E
:106570000C464FF0FF3100220FE09E5C7140002579
:1065800008E001F0010018B1064880EA510100E07E
:1065900049086D1C082DF4D3521CA242EDD3C84308
:1065A00070BD00002083B8ED00BF6EE04FF0FF32F9
:1065B00036493748006802F093FB344800780128D8
:1065C00004D0022827D0032855D10DE02F48806839
:1065D000304908600420304908700023421F2F48CA
:1065E000006802F0A5FA46E005202B49087027480C
:1065F0004068C1F804024FF400722449083126486B
:10660000401CFEF7FFFD00235A1E23492348006863
:1066100002F08EFA2FE0002500261C48007A0106C1
:106620001A48407A41EA00411848807A41EA00203D
:106630001649C97A40EA01051648016818480068F9
:10664000FFF794FF0646B54211D116A000F04CF9B1
:1066500000BF1A48006800F4E06019490843001DB3
:1066600016490860BFF34F8F00BF00BFFEE715A0BB
:1066700000F03AF900BF00BF002001F049FF0446D6
:10668000A200214615A000F02FF98FE7B4450020A5
:106690008800002094000020BC4700208C000020CF
:1066A000B00000204F544120646F776E6C6F6164BE
:1066B00020737563636573730D0A00000CED00E0D1
:1066C0000000FA054F544120646F776E6C6F61646F
:1066D000206572726F720D0A000000005461736BC6
:1066E000204D696E204672656520537461636B3A74
:1066F00020256C6420576F7264732028256C6420F9
:106700004279746573290D0A0000000001460020DB
:10671000034A506820F4404008435060704700002E
:106720000010024029B1064A52690243044B5A61E3
:1067300004E0034A52698243014B5A6170470000EA
:106740000010024029B1064AD2690243044BDA61C3
:1067500004E0034AD2698243014BDA6170470000CA
:106760000010024029B1064A92690243044B9A6123
:1067700004E0034A92698243014B9A61704700002A
:106780000010024030B500210022002400232D4DCE
:106790006D6805F00C0121B1042905D0082923D129
:1067A00005E0294D056022E0274D05601FE0254DDD
:1067B0006D6805F47012234D6D6805F48034022570
:1067C00005EB92421CB9214D554305600BE01D4D70
:1067D0006D6805F400351DB11C4D5543056002E0A0
:1067E000194D5543056002E0174D056000BF00BF1D
:1067F000144D6D6805F0F0010909154D6B5C0568D5
:10680000DD4045600F4D6D6805F4E061090A104DEB
:106810006B5C4568DD4085600A4D6D6805F460512C
:10682000C90A0B4D6B5C4568DD40C560054D6D6860
:1068300005F44041890B074D6B5CC568B5FBF3F56A
:10684000056130BD0010024000127A0000093D00D1
:10685000000000201000002000B585B00121880351
:10686000FFF780FF01210420FFF77CFF012108468C
:10687000FFF758FF18208DF803004FF40070ADF8B3
:10688000000003208DF8020069461548FFF7E0FC80
:1068900004208DF803000002ADF8000003208DF8FD
:1068A000020069460E48FFF7D3FC4FF4E130019037
:1068B0000020ADF810000C20ADF80E000020ADF85F
:1068C0000C00ADF80A00ADF8080001A9054800F079
:1068D00023F90121034800F005F905B000BD0000CF
:1068E00000080140003801400FB400B59BB04FF0E4
:1068F000FF310D48006802F075FA1DA8019002A84A
:10690000019A1C9900F016FA0020019002A800F0EC
:106910001DF800231A4619460348006802F008F9DA
:106920001BB05DF814FB00009000002010B5044679
:106930002146054800F05CF900BF8021024800F0C4
:10694000DDF80028F9D010BD0038014070B50446CC
:10695000002504E0605DFFF7E9FF681CC5B2605DDB
:106960000028F7D170BD10B500F002F810BD00008E
:106970000CB50020019000903348006840F480304E
:106980003149086000BF3048006800F400300090D2
:106990000198401C0190009818B90198B0F5A06FBB
:1069A000F1D12948006800F4003010B101200090B6
:1069B00001E0002000900098012843D1234800689E
:1069C00040F01000214908600846006820F00300EC
:1069D00008600846006840F0020008601A484068F5
:1069E000194948600846406848600846406840F4D5
:1069F000806048600846406820F47C104860084683
:106A0000406840F4E81048600846006840F0807034
:106A1000086000BF0C48006800F000700028F9D042
:106A20000948406820F0030007494860084640686C
:106A300040F00200486000BF0348406800F00C00CE
:106A40000828F9D10CBD00000010024000200240CF
:106A500010B500BF502080F31188BFF34F8FBFF3F4
:106A60006F8F00BF02F0C0FA18B14FF08050044998
:106A7000086000BF002080F3118800BF10BD000037
:106A800004ED00E010B51248006840F00100104924
:106A90000860084640680F4908400D4948600846AC
:106AA00000680D4908400A4908600846006820F45B
:106AB000802008600846406820F4FE0048604FF4DB
:106AC0001F008860FFF74FFF04480549086010BDAC
:106AD000001002400000FFF8FFFFF6FE0050000823
:106AE00008ED00E021B1828942F40052828104E085
:106AF00082894DF6FF731A4082817047024600205A
:106B0000B1F5007F00D100BF13880B400BB101200D
:106B100000E00020704700002DE9F04786B00546F0
:106B20000E460024A24600BFA1460027B08900B14E
:106B300000BF2F462C8A4CF6FF700440F0880443B7
:106B40002C82AC894EF6F3100440B088318908439A
:106B5000718908430443AC81AC8A4FF6FF4004407E
:106B6000B0890443AC8201A8FFF70CFE1F4887429E
:106B700002D1DDF810A001E0DDF80CA0A88900F436
:106B8000004040B10AEBCA0000EB0A10316849002E
:106B9000B0FBF1F807E00AEBCA0000EB0A1031681D
:106BA0008900B0FBF1F86420B8FBF0F00401200983
:106BB000642101FB1089A88900F4004040B1322013
:106BC00000EBC900B0FBF1F000F00700044308E05F
:106BD000322000EB09106421B0FBF1F000F00F004F
:106BE00004432C8106B0BDE8F08700000038014066
:106BF000C1F308028280704710B502210E48FFF7EA
:106C000037F8012816D100240C48FFF7E1FB0B48A8
:106C1000006840F20171884209D008480068B0F568
:106C2000E06F04D005480068891C884201D1FFF755
:106C3000C9F900BF10BD000000640040CC4B00202B
:106C400000BFFEE700B591B001214802FFF78AFDC1
:106C500001210846FFF766FD0120FEF771FF4FF4A2
:106C60000040FFF753FD0723012210212E48FEF7B5
:106C7000F5FE0723022211212B48FEF7EFFE01202B
:106C80008DF8350000200F904FF460200E9000200A
:106C90000C9002208DF8400001208DF834008020F7
:106CA0000490002003900B90204802904FF48060E5
:106CB000089080200690202009901B484C300190BD
:106CC00080150790002005904FF480500A9001A98C
:106CD0001748FFF780FA0CA91348FEF797FE012129
:106CE0001148FEF774FE01210F48FEF765FE0121F1
:106CF0000F48FFF764FA0C48FEF70CFF00BF0A4884
:106D0000FEF77AFE0128FAD00748FEF713FF00BF0E
:106D10000548FEF767FE0128FAD001210248FEF778
:106D2000FEFE11B000BD000000240140E84D00202F
:106D30000800024037B514460846064B6A4621460D
:106D400000F0DCF804466946002000F05AFC2046BA
:106D50003EBD00000376000802E008C8121F08C10B
:106D6000002AFAD170477047002001E001C1121FCC
:106D7000002AFBD1704700002DE9FF5F82B000219F
:106D8000DDE90430020DDDF840B0034318D044F6CD
:106D90001050A2F2FF3242431514119801281FD05F
:106DA000A5EB0B00401C5FEA000A4FF000064E4FB7
:106DB000DFF83891B046504615D5CAF1000413E00B
:106DC000119801244AA3012801D16FEA0B0102980E
:106DD000119AC0E90031C0E9024206B0BDE8F09F57
:106DE000CBF10000DFE704460021404A491842EB9E
:106DF0000450CDE9001012E0E00707D032463B46D0
:106E000040464946FEF727FC8046894632463B46C7
:106E100010461946FEF71FFC06460F466410002C6C
:106E2000EAD1DDE90401DDE90023BAF1000F06DA59
:106E3000FEF711FC42464B46FEF70DFC05E0FEF75F
:106E40007CFC42464B46FEF778FC04460E46002288
:106E5000284BFEF7F9FC03D84FF0FF30014607E05E
:106E60000022254B20463146FEF74EFBFEF7D4FCB0
:106E7000102409E0002C0ADB0A220023FEF7DCFACA
:106E8000039B30321A55641E50EA0102F2D1641C91
:106E9000039AC4F111031444119A012A03D0012268
:106EA00008430DD10AE0084304D000204FF0110B35
:106EB000119072E7A3EB0B056D1E0DE05B4504DD41
:106EC0004FF0000205F1010504E003DA4FF0000283
:106ED000A5F10105002AECD002981199C0E9023110
:106EE000C0E9004579E70000000014400000F03FD1
:106EF000300000000000F0430000E03F2DE9FF4FAC
:106F000095B09A46884606460025EEE1252877D1B9
:106F100000242746F94A0121039400E0044316F8AF
:106F2000013F203B01FA03F01042F7D130782A28C4
:106F300011D06FF02F033078A0F13002092A16D853
:106F4000039A44F0020402EB820203EB4202104473
:106F5000761C0390EFE758F8042B0392002A03DA1B
:106F6000504244F40054039044F00204761C3078FC
:106F70002E2816D116F8010F44F004042A280DD04B
:106F80006FF02F023078A0F13003092B09D807EBFE
:106F9000870302EB4303C718761CF3E758F8047B1A
:106FA000761C30786C280FD006DC4C2817D0682867
:106FB0000DD06A2814D104E0742810D07A280FD19B
:106FC0000DE044F400140AE044F4801401E044F4B9
:106FD00040147278824202D104F58014761C761C2B
:106FE000307866280BD013DC582877D009DC0028CD
:106FF00075D04528F6D04628F4D047281AD193E119
:1070000018E0632835D0642879D0652812D18BE147
:10701000702873D008DC6728F1D069286FD06E28FB
:107020000DD06F2806D1ACE073282CD0752874D011
:10703000782853D05246179990476D1C54E1C4F3F9
:107040000250022809D003280DD0D8F800100428D7
:107050000DD00D6008F1040846E1D8F80010EA17D9
:10706000C1E90052F6E7D8F800100D80F2E70D7084
:10707000F0E718F8041B8DF8001000208DF80100CF
:10708000EB46012003E058F804BB4FF0FF306107E6
:107090004FF0000102D40DE009F101018946B94227
:1070A0000FDA8145F8DB1BF809100029F4D108E05C
:1070B00009F1010189468142FADB1BF80910002918
:1070C000F6D103985346A0EB090721463846179A94
:1070D00000F080FA284400EB090507E044E008E1ED
:1070E0000DE01BF8010B524617999047B9F10109C1
:1070F000F7D2534621463846179AF2E039E00A2182
:10710000C4F302524FF0000B0091022A06D058F847
:10711000040BC117032A09D00AE023E008F1070095
:1071200020F00702F2E80201904605E000B2C11724
:10713000042A01D140B2C117002906DA0A4600210B
:10714000404261EB02012D2202E0220504D52B22F0
:107150008DF80420012203E0E20701D02022F7E7A6
:10716000914657E00A2100E010214FF0000B0091FA
:107170000BE010214FF0000B44F0040408270091AD
:1071800003E008204FF0000B0090C4F30252022AE3
:1071900005D058F8040B0021032A08D008E008F1B4
:1071A000070020F00702F2E80201904603E080B2F7
:1071B000042A00D1C0B24FF0000922072AD5327844
:1071C000702A07D0DDF800C08CF0100C5CEA0B0CC4
:1071D00005D00EE040228DF80420012208E050EA9C
:1071E000010306D030238DF804308DF805200222EB
:1071F0009146009B83F0080353EA0B030AD150EA3F
:10720000010201D1620705D530228DF804204FF02C
:1072100001097F1E3278582A04D039A20C920CAA98
:1072200002920BE03BA2F9E75B46009AFEF704F9F5
:107230000C9B9B5C029A521E0292137050EA010250
:10724000F2D1029804A9081A00F1200B600702D5B8
:1072500024F4803400E001275F4502DDA7EB0B003A
:1072600000E0002000EB0B01009003984944401A15
:107270000390E00306D453462146179A039800F082
:10728000A9F90544002706E001A85246C05D1799F8
:1072900090476D1C7F1C4F45F6DBE0030CD5534631
:1072A0002146179A039800F095F9054404E0302030
:1072B0005246179990476D1C0099481E009000296E
:1072C000F5DC08E00298029952460078491C0291C8
:1072D000179990476D1CBBF10001ABF1010BF1DC7C
:1072E0005BE100F065F90544761C307800287FF4F6
:1072F0000DAE19B02846BDE8F08F00000928010046
:10730000303132333435363738396162636465661B
:1073100000000000303132333435363738394142DD
:107320004344454600000000600700D4062708F1EA
:10733000070020F00700F0E80223804603F0004C2D
:107340005FEA0C0001D097A009E0200501D596A0C6
:1073500005E0E00701D095A001E0AFF24C001390EA
:10736000307823F0004365280CD006DC452809D08E
:1073700046281DD047287FD13BE0662818D06728D3
:107380007AD136E00021112F01DB112000E0781CBA
:10739000CDE9000104A90CA8FFF7EEFCDDE90D0121
:1073A0000C9A4FF0000B07F10109109200914EE08A
:1073B0004FF000400097CDE9011004A90CA8FFF799
:1073C000DBFCDDE90D020C9B0F994FF0000B9146A1
:1073D0001093009211B9791C00EB0109B7EB090079
:1073E00003D4C0F1FF3B07F10109A9EB07000190AD
:1073F00042E0012F00DA01270021112F01DD1120C9
:1074000000E03846CDE9000104A90CA8FFF7B4FC60
:10741000DDE90D010C9A00914FF0000BB946109276
:1074200021070FD4009A4A4503DA914601E0A9F1F9
:107430000109B9F1010F05DD109AA9F10101515CB3
:107440003029F4D0B84202DA10F1040F03DA012136
:10745000CDE9011010E0002803DC8344A9EB000112
:1074600002E0411C494500DD8946A0EB0B00401CB1
:1074700001904FF000400290200705D40198484544
:1074800002DB4FF0FF30019000208DF84B00029896
:107490000DF14B07B0F1004F25D002200C902B20AE
:1074A0000D90029800280CDA404202902D200D9099
:1074B00007E00A210298FDF7A9FF3031029007F892
:1074C000011D0C99481E0C900029F2DC029800283E
:1074D000EFD1791E0D980870307800F0200040F050
:1074E000450007F8020D11A8C01BC01D029013989B
:1074F000007800B1012000EB0901019801EBE07177
:10750000029801440398401A401E0390E00306D4F9
:1075100053462146179A039800F05CF805441398E7
:10752000007818B15246179990476D1CE00323D597
:1075300053462146179A039800F04CF805441BE087
:10754000BBF1000F07DB0098584504DD1098179930
:1075500010F80B0001E0179930205246904701982F
:107560000BF1010B401E05F10105019004D12E2005
:107570005246179990476D1CB9F10001A9F1010914
:10758000DEDC05E017F8010B5246179990476D1C99
:107590000299481E02900029F4DC53462146179AAE
:1075A00003989EE62D0000002B0000002000000044
:1075B0002DE9F041044600251E461746880404D4F0
:1075C00005E039462020B0476D1C641EF9D52846D9
:1075D000BDE8F0812DE9F041044600251E469046A5
:1075E000C80301D5302700E02027880404D505E032
:1075F00041463846B0476D1C641EF9D52846BDE8A3
:10760000F0810A68531C0B601070704710B5044677
:1076100000F030F80A48006940F0020008490861AB
:1076200008464461006940F04000086100F022F81B
:107630000348006920F002000149086110BD000004
:107640000020024070B504460D4600F013F80848CB
:10765000006940F0010006490861258000F00AF841
:107660000348006920F001000149086170BD000075
:107670000020024000BF0348C06800F0010000285D
:10768000F9D17047002002400348006940F08000B3
:107690000149086170470000002002400648006967
:1076A00000F0800030B172B60448034948600448D5
:1076B000486062B670470000002002402301674521
:1076C000AB89EFCD074800680749884201D1012006
:1076D0007047044800680549884201D10220F7E755
:1076E0000020F5E708ED00E00050000800700308F6
:1076F0001CB562B6002000900346802204A10190D0
:10770000064801F037FC01F0FDF800BFFEE700007D
:1077100073746172745F7461736B00007981000827
:107720002DE9F04105460E462648076826480068C0
:10773000001D00F0D3FE50B92348006890F82C10CB
:107740000120884021490968814320480160681C64
:10775000D8B9D6B11E4948681B49096888601A49DA
:1077600082680968CA6018490968091D8268516001
:1077700015490968091D8160154A134909684A615C
:1077800011460968491C11601AE07C190E4800680E
:107790004460BC4207D20C480168091D0D480068CE
:1077A00000F0DAFE0CE008480168091D0A4800688C
:1077B00000F0D2FE09480068844201D20748046004
:1077C000BDE8F08128000020140000202C000020DB
:1077D000780100201C000020180000204400002038
:1077E00010B5044600F0DEFE2F480068401C2E490C
:1077F00008602E48006840B92C48046008460068BC
:1078000001280DD100F0D6F90AE02948006838B9FE
:1078100026480068C06AE16A884201D823480460AB
:1078200024480068401C2349086094F82C1001206B
:1078300088402149096808431F490860E16A01EB53
:1078400081011E4A02EB81014868A0608268E26003
:10785000211D826851608160E16A01EB8101174A54
:1078600002EB81026261E16A01EB8101134A52F885
:107870002110491CE26A02EB8202104B43F82210ED
:1078800000F0A2FE0A48006868B108480068C06AB3
:10789000E16A884207D24FF0805009490860BFF37F
:1078A0004F8FBFF36F8F10BD240000201400002005
:1078B00030000020400000202C000020C4000020E8
:1078C00004ED00E010B500F06DFE0C48006890B9C2
:1078D0000B4800F031FE0B4800F02EFE08480A4924
:1078E000086008480949086000220C210A2001F0BC
:1078F000A8F80249086000F067FE10BD5C00002097
:107900008C010020A001002054000020580000201D
:1079100010B516E000F046FE0C48C068C468201D93
:1079200000F0DCFD0A480068401E0949086009486B
:107930000068401E0749086000F046FE204600F03F
:107940005FF8044800680028E4D110BD64010020FD
:10795000240000202000002070B504460D46206C55
:1079600070B1216CE0680144E160D4E90210884202
:1079700001D32168E1602846226CE168FDF742FCF2
:1079800070BD2DE9F04104460F4615464FF0000842
:10799000A66B206C48B9206800282CD1A06801F0A3
:1079A000EBFB80460020A06025E07DB93946226CC3
:1079B0006068FDF727FC216C606808446060D4E9CA
:1079C0000101884217D32068606014E03946226CB8
:1079D000E068FDF717FC216CE068411AE16021685E
:1079E000E068884203D2216CA068411AE160022D50
:1079F00001D106B1761E701CA0634046BDE8F0813F
:107A000010B50446206B00F0EFFD204600F0ECFDC1
:107A100010BD01464A6A22B10A6B1268C2F1050024
:107A200000E00020704700000146084A1268126812
:107A30000AB9012200E000220A600A6822B9034A5A
:107A40001268D268106800E00020704754000020DF
:107A500030B54FF48843154800F007042CB1C01D21
:107A600020F00700114C041B1B1B0246104C226027
:107A700000240F4D6C60D018083820F007000D4C22
:107A8000206000240B4D2D686C600A4D2D682C6021
:107A90001146441A4C60074C24680C60064D4C6833
:107AA0002C60064D4C682C6030BD0000B4010020F5
:107AB0006C000020740000207C0000207800002072
:107AC00000BFFFF725FF064800680128F9D94FF0ED
:107AD000805004490860BFF34F8FBFF36F8FF0E70A
:107AE000C400002004ED00E010B5044654B10020AD
:107AF000A06020600021E16000231A46194620465C
:107B000001F016F810BD2DE9F04106460D46174666
:107B10009846069C0DB9246000E02760E663256462
:107B20000121204600F0B4FFBDE8F0812DE9F05FAF
:107B300081460E4690469A460A9F0C9C4FEA880161
:107B4000A522206BFDF770FBA8F10100216B01EB72
:107B5000800B2BF0070B7EB1002507E0715D04F16F
:107B600034004155705D00B902E06D1C102DF5D355
:107B700000BF002143200155052F00D30427E762F1
:107B80006764201D00F0E5FC04F1180000F0E1FC42
:107B90002461C7F10500A061646252464946584617
:107BA00000F0D8FA20600B9808B10B980460BDE88B
:107BB000F09F000010B5002407E004EB84010F4A99
:107BC00002EB810000F0B8FC641C052CF5D30C48D6
:107BD00000F0B2FC0B4800F0AFFC0B4800F0ACFC2E
:107BE0000A4800F0A9FC0A4800F0A6FC044809492C
:107BF000086004480849086010BD0000C400002067
:107C0000280100203C0100205001002064010020D8
:107C100078010020180000201C00002010B501464B
:107C2000164800E0006803688B42FBD302464368B5
:107C300013448B4204D143684C682344436001469B
:107C40000A464B6813440468A34211D10C4C0368E4
:107C50002468A34208D04B680468646823444B60DE
:107C600003681B680B6005E0054B1B680B6001E0B7
:107C700003680B60884200D0016010BD6C000020DA
:107C8000740000202DE9F04104460D4616461F46BB
:107C90004FF0000865602461B5420CD8F01BA16963
:107CA000884202D34FF0010811E0211D0948006805
:107CB00000F052FC0BE0BE4204D2BD4202D34FF0B2
:107CC000010804E0211D0448006800F045FC40461E
:107CD000BDE8F081580000205400002070B5054632
:107CE00000F060FCA86B08B9012400E0002400F05B
:107CF0006BFC204670BD70B5054600F053FCA86BC8
:107D0000E96B884201D1012400E0002400F05CFC12
:107D1000204670BD70B505460E460E480068C06826
:107D2000C468201D00F0DAFB94F8240000F0040081
:107D300028B132462946204600F0C4F805E094F800
:107D4000240000F0FE0084F824002046216A8847C1
:107D500070BD0000540000207FB56EE0019800283F
:107D60006BDB039C606908B9012000E0002010B9BA
:107D7000201D00F0B3FB684600F0D0F805460198DE
:107D80000A2858D2DFE800F05705072E36470608C4
:107D90002F3700BF00BF00BF94F8240040F001005F
:107DA00084F824000298A269811803462A462046D6
:107DB000FFF768FFA8B194F8240000F0040038B180
:107DC0000298A26981182A46204600F07BF805E057
:107DD00094F8240000F0FE0084F824002046216A74
:107DE000884729E000BF94F8240000F0FE0084F8E2
:107DF000240021E000BF94F8240040F0010084F842
:107E000024000298A061A06941192B462A46204609
:107E1000FFF738FF10E094F8240000F0020018B9D2
:107E2000204600F0E1FB05E094F8240000F0FE009D
:107E300084F8240000E000BF00BF002201A903482D
:107E4000006800F04DFF002888D17FBD5C00002055
:107E5000F8B505460C4600F091FD684600F05EF866
:107E60000646009820BB44B9B54206D801F0D4FAC2
:107E700031462846FFF74EFF1CE03CB10E48006833
:107E8000006808B9012000E000200446A91B224632
:107E90000A48006800F0DAFB01F0BEFA50B94FF072
:107EA000805007490860BFF34F8FBFF36F8F01E029
:107EB00001F0B2FAF8BD0000580000205C0000207C
:107EC00004ED00E070B504460D46164604E0A069D6
:107ED00005442046216A8847A06941192B4632464D
:107EE0002046FFF7CFFE0028F1D170BD0948006899
:107EF000006808B9012000E0002020B14FF0FF30F9
:107F00000549086005E003480068C0680068024948
:107F100008607047180000204400002070B5044637
:107F200001F05CF8054607480068854204D200F07D
:107F30000BF80120206001E000202060014805606E
:107F4000284670BD6400002070B508E00D48006848
:107F5000C06804684FF0FF312046FFF7DBFE094898
:107F60000068006808B9012000E000200028EDD07A
:107F70000448056804480068024908600248056032
:107F800070BD00005400002058000020024600216F
:107F900001E0521C491C1078A528FAD0890888B243
:107FA000704700BF502080F31188BFF34F8FBFF39D
:107FB0006F8F00BF00BFFEE708B500BF6846FFF740
:107FC00033FD044620460099FFF742FFFFF7C4FE49
:107FD000F4E770B5044600F0E5FA94F9455010E076
:107FE000606A08B9012000E0002038B904F12400DB
:107FF00001F08EF918B100F0DFFB00E003E0681E2D
:1080000045B2002DECDC00BFFF2084F8450000F0F5
:10801000DBFA00F0C7FA94F9445010E0206908B97F
:10802000012000E0002048B904F1100001F070F9CF
:1080300008B100F0C1FB681E45B200E001E0002D70
:10804000ECDC00BFFF2084F8440000F0BDFA70BDF6
:108050002DE9F04705464FF0000900F08FFC30484D
:10806000006808B9FFF7F4FC75B105F00700C0F12E
:108070001008C8F1FF30A84201D2012000E0002022
:1080800008B9454400E00025012000EBE570002818
:1080900041D0002D3FD02348006885423BD8224E76
:1080A0003046046801E0264624686068A84202D28F
:1080B00020680028F7D11A48006884422BD0306825
:1080C00000F10809206830606068401B102807D95B
:1080D00067196068401B786065603846FFF79EFD51
:1080E000104960680968081A0E4908600846006867
:1080F0000E490968884203D20A4800680B490860A3
:10810000606840F00040606000202060084800681F
:10811000401C0749086001F07FF94846BDE8F08738
:1081200074000020780000206C0000207C000020FB
:10813000800000200648006830B10549096801F157
:108140004800896C491C01600148006870470000C4
:1081500014000020001F4FF080730360001F21F007
:1081600001030360001F034B0360143802602038D2
:1081700070470000A37F00081CB50446FEF76CFBA7
:10818000FEF736F9FEF7F6F8FEF75CFDFEF708F9A4
:1081900000224FF402710A2000F053FC1F490860CE
:1081A00000224FF402710A2000F04BFC1C490860C9
:1081B000012000F035FC1B49086000F0F3F90020B5
:1081C000012103460A02CDE9001017A11A4800F068
:1081D000D1FE0020012103460A02CDE9001017A1BB
:1081E0001B4800F0C7FE0020012103460A02CDE92A
:1081F000001018A11B4800F0BDFE0020012103461D
:108200000A02CDE9001018A11B4800F0B3FE0020BF
:1082100000F05CFA00F0D8F91CBD000088000020D6
:108220008C0000209000002050726F746F636F6CA0
:108230005F5461736B000000A9650008466C6173B0
:10824000685F57726974655F5461736B000000006A
:1082500015620008757365725F74656D7074617383
:108260006B000000C9830008757365725F6C6564FC
:108270007461736B000000009183000810B500204A
:108280000249086000F004F810BD0000AC000020B6
:1082900010B5FFF717FA012806D1124812490860F5
:1082A00012A0FEF721FB05E014480F49086014A056
:1082B000FEF71AFB00BF40211548FEF71FFC0028FF
:1082C000F9D0FFF7EBF9002406E00749096801EB54
:1082D000C420FFF79BF9641C642CF6DBFFF7D4F98C
:1082E00010BD000000700308B0000020B2C1B3FD53
:1082F000C4BFB1EACEAA42C7F80D0A000050000878
:10830000B2C1B3FDC4BFB1EACEAA41C7F80D0A009D
:10831000003801402DE9F04105460E46C5F34F08EF
:10832000FFF7BCF9002412E016F814106000401C9E
:10833000305C41EA002714490968144A1268114464
:1083400001EB44003946FFF77DF9601C84B24445D7
:10835000EADB05F0010068B1681E375C47F47F472F
:1083600009490968094A1268114401EB4800394675
:10837000FFF768F9FFF788F90448006828440349C3
:108380000860BDE8F0810000B0000020AC000020D3
:1083900015E00B48007838B920210A48FDF7E3FFC3
:1083A00001200749087006E020210648FDF7DDFF9F
:1083B0000020034908704FF4FA7000F06DF9E8E707
:1083C000C2000020000C014070B506462F49088805
:1083D00000EBD0714910A0EB410159BB2C492B4A4D
:1083E000128831F81200FCF7F9FF05464FF08B4177
:1083F000FCF7B6FF04462749FCF780FF26490860D2
:10840000084601682548FCF773FF05462449FCF738
:10841000A7FF04462349FCF719FF234908600846D3
:108420000068FCF7E0FF044622460B461FA0FEF75B
:108430005BFA1BE01649154A128831F81200FCF766
:10844000CDFF05464FF08B41FCF78AFF04461149EA
:10845000FCF754FF1B49086008460068FCF7C3FF9F
:10846000044622460B4618A0FEF73EFA074800884D
:10847000401C06490880084600887F2190FBF1F2E5
:1084800001FB12000149088070BD0000C0000020FF
:10849000F052002033335340B80000203D0AB73F6C
:1084A00004E78C3B0000C841BC00002054656D709F
:1084B0002056616C756520697320252E31660D0A82
:1084C00000000000B40000205643432056616C7544
:1084D0006520697320252E31660D0A0001460A6960
:1084E000D1E901309860D1E90103586050688842B1
:1084F00001D188685060002008611068401E10603B
:108500001068704701480068704700002400002090
:108510002DE9F041044614B90648006800E0204601
:1085200007463D6B2846FFF731FD06463046BDE85D
:10853000F08100001400002000F1080141604FF0BC
:10854000FF31816000F10801C1600161002101601B
:10855000704700210161704710B502460B685C1C32
:108560000CB9106907E002F1080000E040684468B7
:1085700024689C42FAD944684C604C68A1608860C9
:1085800041600A611468641C146010BD42684A604E
:1085900093688B60936859609160086103685B1C05
:1085A0000360704700BF502080F31188BFF34F8FE6
:1085B000BFF36F8F00BF03480068401C014908608B
:1085C000704700006800002006480068401E05490A
:1085D00008600846006820B9002080F3118800BFB9
:1085E00000BF70476800002070B506463546E6B10A
:1085F000083D2C466068C00FB8B12068A8B9606813
:1086000020F00040606000F0B9F90849606809682E
:108610000844064908602046FFF700FB044800684C
:10862000401C0349086000F0F7FE70BD7800002090
:108630008400002000204FF0E0210861886102489A
:1086400048610720086170473F1901002DE9F0419A
:1086500005460E4617462C46FFF7A4FF94F9440042
:10866000401C10B9002084F8440094F94500401CD7
:1086700010B9002084F84500FFF7A6FFA06B28B9C9
:108680003A46314604F1240000F0ACF82046FFF7EA
:10869000A0FCBDE8F081000070B50446002544B19F
:1086A00000F06CF900212046FFF73AF800F0B4FE24
:1086B00005463DB94FF0805003490860BFF34F8F26
:1086C000BFF36F8F70BD000004ED00E070B505468C
:1086D000FFF768FF15B92948006800E028460446FE
:1086E000201DFFF7FBFE78B9E06A00EB800024490B
:1086F00051F8200040B994F82C10012088402149FD
:10870000096881431F480160A06A18B104F118008C
:10871000FFF7E4FE1C480068401C1B49086017482E
:108720000068844209D1211D1848FFF72FFF18481F
:108730000068401C1649086006E016480068401EA4
:1087400014490860FFF7D2FBFFF73EFF0B480068B3
:10875000844202D02046FFF753F90F48006858B111
:1087600006480068844207D14FF080500B490860EA
:10877000BFF34F8FBFF36F8F70BD00001400002058
:10878000C40000202C0000204000002064010020D4
:1087900020000020240000203000002004ED00E034
:1087A0000349096801600349096841607047000096
:1087B0003C0000202800002001200149086070478B
:1087C0003800002070B505460C4605480168183190
:1087D0002846FFF7C1FE01212046FEF7A1FF70BD2C
:1087E0001400002070B504460E46154660680F4917
:1087F0000968C8610D49826809680A620B490968FD
:108800001831826851600949096818318160074947
:1088100009688C622168491C21600DB14FF0FF3658
:1088200029463046FEF77CFF70BD00001400002092
:108830002DE9F04706460F4634464FF00109002E59
:108840005AD0606CB84201D23D4600E0656CE06AE7
:10885000A84251D0A06C01284ED1D4F82C80E562FA
:10886000A06900F0004010B9C5F10500A06108EB57
:108870008801224A02EB81016069884201D101200E
:1088800000E00020C0B3201DFFF728FE40B994F897
:108890002C10012088401A4909688143184801605A
:1088A00094F82C10012088401549096808431449A0
:1088B0000860E16A01EB8101104A02EB810148681E
:1088C000A0608268E260211D826851608160E16A77
:1088D00001EB8101094A02EB81026261E16A01EB6D
:1088E0008101064A52F82110491CE26A02EB820219
:1088F000024B43F8221000BFBDE8F087C4000020FF
:108900002C0000201CB5154800210B468022CDE923
:10891000001013A1144800F02DFB0446012C02D1D5
:1089200000F028FE0446012C14D100BF502080F333
:108930001188BFF34F8FBFF36F8F00BF4FF0FF3031
:108940000A49086001200A490860002009490860B6
:1089500000F04CF8084800681CBD000048000020EA
:1089600049444C4500000000C17A00084400002042
:1089700030000020280000204C0000200248006841
:10898000401C0149086070475000002012480068F0
:1089900018B10120114908601DE000200F4908604E
:1089A0000F480068B0FA80F0C0F11F0101EB8102AE
:1089B0000C4B03EB820042685268426000F10802EF
:1089C0004368934202D14268526842604268D2686A
:1089D000054B1A6000BF704750000020380000208F
:1089E0002C000020C40000201400002010B50A480C
:1089F000006840F47000084908600846006840F0CC
:108A000070400860FFF716FE002004490860FCF77C
:108A1000ADFB002010BD000020ED00E0680000204C
:108A20002DE9F041044601260027224600210120BD
:108A300000F007F805462846FFF756F82846BDE837
:108A4000F0812DE9F84304460E4617460025DCB1B7
:108A5000681EB0FBF4F0B04216D304FB06F010F130
:108A6000490F11D804FB06F909F14800FFF7F0FAA5
:108A700005464DB1A84608F148083B4642463146F6
:108A800020460095FFF73FF82846BDE8F883000030
:108A90002DE9F04105460E4601272C46002C41D019
:108AA000E06B00283ED0B91EE06BB1FBF0F0216C0A
:108AB000884237D3FFF776FDD4E90F12206801FB17
:108AC0000200A0600020A06320686060E06B401E90
:108AD000226C216800FB0211E160FF2084F8440051
:108AE00084F845009EB9206908B9012000E0002003
:108AF000A8B904F1100000F00BFC80B14FF08050D9
:108B00000A490860BFF34F8FBFF36F8F07E004F18E
:108B10001000FFF711FD04F12400FFF70DFDFFF732
:108B200053FD00E000273846BDE8F08104ED00E089
:108B30002DE9FF4383B0074688461D464FF00009E4
:108B40003C4600BFFFF72EFDA06BE16B884201D3CE
:108B5000022D28D12A4641462046FEF712FF06463E
:108B6000606A08B9012000E0002068B904F124001F
:108B700000F0CEFB88B14FF0805032490860BFF35F
:108B80004F8FBFF36F8F08E03EB14FF080502D49FB
:108B90000860BFF34F8FBFF36F8FFFF715FD012004
:108BA00007B0BDE8F083059818B9FFF70DFD002068
:108BB000F6E7B9F1000F04D101A8FFF7F1FD4FF07E
:108BC0000109FFF701FDFFF7D9FEFFF7EBFC94F970
:108BD0004400401C10B9002084F8440094F945007A
:108BE000401C10B9002084F84500FFF7EDFC05A9F2
:108BF00001A800F08FF9F0B92046FFF77CF8A0B18A
:108C000004F110000599FFF7DDFD2046FFF7E1F9BB
:108C100000F002FC002895D14FF08050094908600F
:108C2000BFF34F8FBFF36F8F8CE72046FFF7D1F96B
:108C300000F0F2FB86E72046FFF7CBF900F0ECFBF3
:108C40000020ADE704ED00E02DE9FF4F81B00546BF
:108C500016461F462C4600BF5021EFF3118081F3CA
:108C60001188BFF34F8FBFF36F8F00BF8146A06B9A
:108C7000E16B884201D3022F28D194F945A0A06B63
:108C800000903A4620460299FEF77BFE0AF1010069
:108C900070B9606A08B9012000E0002038B904F119
:108CA000240000F035FB10B10EB1012030600AE065
:108CB000FFF728FC8346DA4504D20AF1010040B2EE
:108CC00084F8450000BF4FF0010801E04FF00008B4
:108CD00000BF89F3118800BF404605B0BDE8F08FA2
:108CE0002DE9F74183B005460F464FF000082C46AA
:108CF00000BFFFF757FCA66BF6B139462046FEF7DA
:108D00002BFE701EA063206908B9012000E000203E
:108D100060B904F1100000F0FBFA38B14FF0805058
:108D20002F490860BFF34F8FBFF36F8FFFF74CFCE5
:108D3000012006B0BDE8F081059818B9FFF744FCA2
:108D40000020F6E7B8F1000F04D101A8FFF728FDD5
:108D50004FF00108FFF738FCFFF710FEFFF722FC89
:108D600094F94400401C10B9002084F8440094F9A0
:108D70004500401C10B9002084F84500FFF724FC92
:108D800005A901A800F0C6F8F0B92046FEF7A6FF35
:108D9000A0B104F124000599FFF714FD2046FFF768
:108DA00018F900F039FB0028A3D14FF080500C498E
:108DB0000860BFF34F8FBFF36F8F9AE72046FFF72E
:108DC00008F900F029FB94E72046FFF702F900F0CC
:108DD00023FB2046FEF782FF00288AD00020A8E768
:108DE00004ED00E02DE9F34182B0054600272C4652
:108DF000B84600BFFFF7D6FBA66BFEB1701EA0639E
:108E0000206810B9FFF796F9A060206908B9012021
:108E100000E0002060B904F1100000F079FA38B1E8
:108E20004FF080503A490860BFF34F8FBFF36F8F08
:108E3000FFF7CAFB012004B0BDE8F081039818B920
:108E4000FFF7C2FB0020F6E71FB96846FFF7A8FC52
:108E50000127FFF7B9FBFFF791FDFFF7A3FB94F99B
:108E60004400401C10B9002084F8440094F94500E7
:108E7000401C10B9002084F84500FFF7A5FB03A9AA
:108E8000684600F047F840BB2046FEF727FFF0B1E8
:108E9000206838B9FFF786FBA06800F0C3F9804668
:108EA000FFF792FB04F124000399FFF78BFC2046A7
:108EB000FFF78FF800F0B0FA00289BD14FF08050F8
:108EC00013490860BFF34F8FBFF36F8F92E72046BF
:108ED000FFF77FF800F0A0FA8CE72046FFF779F85B
:108EE00000F09AFA2046FEF7F9FE002882D0B8F189
:108EF000000F0BD0FFF756FB2046FEF78AFD064613
:108F00003146A068FFF794FCFFF75EFB002092E774
:108F100004ED00E070B506460C46FFF743FB13482E
:108F200002687068131A2068401C08B9002519E00F
:108F30000F4930680968884206D07068904203D8AB
:108F40000125002020600DE02068984207D92068A4
:108F5000C01A20603046FFF723FC002502E0002005
:108F600020600125FFF730FB284670BD2800002057
:108F70003C0000202DE9FF4F85B08046894617460A
:108F8000DDE912ABB800FFF763F8064676B154206E
:108F9000FFF75EF804462CB154212046FCF74BF94C
:108FA000266304E03046FFF71FFB00E000247CB19D
:108FB0000020CDE900ABCDE902403A4649464046A3
:108FC000089BFEF7B3FD2046FEF70AFC012501E0F1
:108FD0004FF0FF35284609B0BDE8F08F0149086819
:108FE00070470000280000202DE9F0410027574875
:108FF000006800287ED156480068451C544805602A
:109000008DB95448D0F80080534800685149086031
:109010005148C0F8008051480068401C4F49086022
:10902000FEF764FF00BF4E480068854276D300BF5C
:1090300048480068006808B9012000E0002020B11D
:109040004FF0FF304649086067E042480068C0685A
:10905000C4686668B54202D2414806605DE0606956
:10906000D4E902128A60D4E902214A60211D4268D3
:109070008A4201D1E1684160002262610168491EB3
:109080000160A06A98B1A06AD4E907128A60D4E9A5
:1090900007214A6004F1180142688A4201D1216A1D
:1090A00041600022A2620168491E016000BF94F87D
:1090B0002C10012088402B49096808432949086081
:1090C000E16A01EB8101284A02EB81014868A06056
:1090D0008268E260211D826851608160E16A01EB73
:1090E0008101214A02EB81026261E16A01EB8101A7
:1090F0001D4A00E022E052F82110491CE26A02EB0E
:109100008202194B43F822101849E06A0968C96ABB
:1091100088428DD901278BE700E000BF1348006823
:10912000C06A00EB8000104951F82000012800D9E6
:1091300001270F48006800B1012704E00D480068CE
:10914000401C0C4908603846BDE8F0815000002002
:1091500028000020180000201C0000203C000020F7
:10916000440000202C000020C40000201400002037
:10917000380000203400002070B505462C4600263B
:10918000002D48D0A06C401EA064616CE06A88424B
:1091900041D0A06C00283ED1201DFFF79FF940B9B7
:1091A00094F82C10012088401C49096881431B4811
:1091B0000160606CE062E06AC0F10500A06194F8B3
:1091C0002C1001208840154909680843134908609C
:1091D000E16A01EB8101124A02EB81014868A0605B
:1091E0008268E260211D826851608160E16A01EB62
:1091F00081010B4A02EB81026261E16A01EB8101AC
:10920000074A52F82110491CE26A02EB8202044B21
:1092100043F822100126304670BD00002C000020CB
:10922000C400002070B505462C460026002D67D0EE
:109230003449E06A0968C96A88425AD2A06900F0D4
:10924000004028B92F480068C06AC0F10500A0613D
:10925000E16A01EB81012C4A02EB810160698842DD
:1092600001D1012000E00020E0B3201DFFF736F916
:1092700040B994F82C1001208840244909688143A2
:10928000224801601F480068C06AE06294F82C1010
:10929000012088401D49096808431C490860E16AAB
:1092A00001EB8101184A02EB81014868A0608268E5
:1092B000E260211D826851608160E16A01EB8101F9
:1092C000114A02EB81026261E16A01EB81010E4AFF
:1092D00052F82110491CE26A02EB82020A4B43F861
:1092E000221004E0FFE707480068C06AE062012638
:1092F00006E00449606C0968C96A884200D2012608
:10930000304670BD14000020C40000202C00002056
:1093100070B50346D868C168886AD1E90745A56079
:10932000D1E90754656001F118044568A54201D1EF
:109330000C6A446000258D620468641E0460304835
:10934000006800283DD14869D1E90245A560D1E90E
:10935000025465600C1D4568A54201D1CC6844608B
:1093600000254D610468641E046091F82C400120C2
:10937000A040244C24682043224C2060CC6A04EB9B
:109380008404214D05EB8404606888608568CD60A5
:109390000C1D85686C608460CC6A04EB84041A4DF3
:1093A00005EB84054D61CC6A04EB8404164D55F839
:1093B0002440641CCD6A05EB8505134E46F8254014
:1093C00010E0124C6068C86185680D6201F11804F4
:1093D00085686C6084600D4D8D622C462468641C29
:1093E0002C6000BF0A4CC86A2468E46AA04204D911
:1093F00001220120074C206000E00022104670BDD1
:10940000500000202C000020C4000020500100204B
:10941000140000203800002070B500240026FFF75B
:10942000C1F84B480068401E49490860084600687A
:1094300000287DD147480068002879D05BE0464885
:10944000C068C468A06AD4E907128A60D4E9072119
:109450004A6004F1180142688A4201D1216A4160E0
:109460000022A2620168491E01606069D4E902120B
:109470008A60D4E902214A60211D42688A4201D1F2
:10948000E1684160002262610168491E016094F850
:109490002C10012088403149096808432F49086091
:1094A000E16A01EB81012E4A02EB81014868A0606C
:1094B0008268E260211D826851608160E16A01EB8F
:1094C0008101274A02EB81026261E16A01EB8101BD
:1094D000234A52F82110491CE26A02EB8202204B17
:1094E00043F822101F49E06A0968C96A884202D31A
:1094F00001201D4908601848006808B9012000E0F3
:10950000002000289BD00CB1FEF7F0FC174805683E
:1095100065B100BFFFF768FD10B101201249086076
:109520006D1E002DF6D10020104908600E4800E0A5
:1095300009E0006838B1012630070D490860BFF323
:109540004F8FBFF36F8FFFF73FF8304670BD0000BD
:109550005000002024000020500100202C0000209A
:10956000C400002014000020380000203400002037
:1095700004ED00E01CB50024FEF7A4F907480068DC
:1095800050B10748042100238A01CDE9001005A14C
:109590000648FFF7EFFC044620461CBD5C00002097
:1095A00060000020546D722053766300B97F00087C
:1095B000D095000800000020C4000000586D00088D
:1095C00094960008C40000202C570000686D000825
:1095D0000000000001020304010203040607080959
:1095E0000204060800000000000000000000000067
:1095F000000000000000000000000000000000006B
:10960000000000000000000000000000000000005A
:109610000000000000000000000000000400000046
:10962000000000000000000000000000000000003A
:109630000000000000000000AAAAAAAA0000000082
:10964000000000000000000000000000000000001A
:10965000000000000000000000000000000000000A
:1096600000000000000000000000000000000000FA
:1096700001000000000000000000000000000000E9
:1096800000000000000000000000000000000000DA
:0496900000000000D6
:04000005080051316D
:00000001FF
